{
  "contractName": "NFTMarketPlace",
  "abi": [
    {
      "inputs": [],
      "stateMutability": "nonpayable",
      "type": "constructor"
    },
    {
      "anonymous": false,
      "inputs": [
        {
          "indexed": true,
          "internalType": "uint256",
          "name": "id",
          "type": "uint256"
        },
        {
          "indexed": false,
          "internalType": "string",
          "name": "uri",
          "type": "string"
        }
      ],
      "name": "Deleted",
      "type": "event"
    },
    {
      "anonymous": false,
      "inputs": [
        {
          "indexed": false,
          "internalType": "uint256",
          "name": "amount",
          "type": "uint256"
        }
      ],
      "name": "FeesWithdrawn",
      "type": "event"
    },
    {
      "anonymous": false,
      "inputs": [
        {
          "indexed": true,
          "internalType": "uint256",
          "name": "id",
          "type": "uint256"
        },
        {
          "indexed": false,
          "internalType": "uint256",
          "name": "price",
          "type": "uint256"
        }
      ],
      "name": "Listed",
      "type": "event"
    },
    {
      "anonymous": false,
      "inputs": [
        {
          "indexed": true,
          "internalType": "uint256",
          "name": "id",
          "type": "uint256"
        },
        {
          "indexed": false,
          "internalType": "address",
          "name": "owner",
          "type": "address"
        },
        {
          "indexed": false,
          "internalType": "string",
          "name": "uri",
          "type": "string"
        }
      ],
      "name": "Minted",
      "type": "event"
    },
    {
      "anonymous": false,
      "inputs": [
        {
          "indexed": true,
          "internalType": "uint256",
          "name": "id",
          "type": "uint256"
        },
        {
          "indexed": false,
          "internalType": "uint256",
          "name": "oldPrice",
          "type": "uint256"
        },
        {
          "indexed": false,
          "internalType": "uint256",
          "name": "newPrice",
          "type": "uint256"
        }
      ],
      "name": "PriceUpdated",
      "type": "event"
    },
    {
      "anonymous": false,
      "inputs": [
        {
          "indexed": true,
          "internalType": "uint256",
          "name": "id",
          "type": "uint256"
        },
        {
          "indexed": false,
          "internalType": "address",
          "name": "newOwner",
          "type": "address"
        },
        {
          "indexed": false,
          "internalType": "uint256",
          "name": "price",
          "type": "uint256"
        }
      ],
      "name": "Purchased",
      "type": "event"
    },
    {
      "anonymous": false,
      "inputs": [
        {
          "indexed": true,
          "internalType": "uint256",
          "name": "id",
          "type": "uint256"
        },
        {
          "indexed": false,
          "internalType": "address",
          "name": "seller",
          "type": "address"
        }
      ],
      "name": "Unlisted",
      "type": "event"
    },
    {
      "inputs": [],
      "name": "listPrice",
      "outputs": [
        {
          "internalType": "uint256",
          "name": "",
          "type": "uint256"
        }
      ],
      "stateMutability": "view",
      "type": "function",
      "constant": true
    },
    {
      "inputs": [
        {
          "internalType": "uint256",
          "name": "",
          "type": "uint256"
        }
      ],
      "name": "nfts",
      "outputs": [
        {
          "internalType": "uint256",
          "name": "id",
          "type": "uint256"
        },
        {
          "internalType": "address",
          "name": "owner",
          "type": "address"
        },
        {
          "internalType": "address",
          "name": "seller",
          "type": "address"
        },
        {
          "internalType": "uint256",
          "name": "price",
          "type": "uint256"
        },
        {
          "internalType": "string",
          "name": "uri",
          "type": "string"
        },
        {
          "internalType": "bool",
          "name": "listed",
          "type": "bool"
        }
      ],
      "stateMutability": "view",
      "type": "function",
      "constant": true
    },
    {
      "inputs": [
        {
          "internalType": "address",
          "name": "",
          "type": "address"
        },
        {
          "internalType": "uint256",
          "name": "",
          "type": "uint256"
        }
      ],
      "name": "ownedNFTs",
      "outputs": [
        {
          "internalType": "uint256",
          "name": "",
          "type": "uint256"
        }
      ],
      "stateMutability": "view",
      "type": "function",
      "constant": true
    },
    {
      "inputs": [],
      "name": "owner",
      "outputs": [
        {
          "internalType": "address",
          "name": "",
          "type": "address"
        }
      ],
      "stateMutability": "view",
      "type": "function",
      "constant": true
    },
    {
      "inputs": [],
      "name": "totalSupply",
      "outputs": [
        {
          "internalType": "uint256",
          "name": "",
          "type": "uint256"
        }
      ],
      "stateMutability": "view",
      "type": "function",
      "constant": true
    },
    {
      "inputs": [
        {
          "internalType": "string",
          "name": "_uri",
          "type": "string"
        }
      ],
      "name": "mint",
      "outputs": [
        {
          "internalType": "uint256",
          "name": "",
          "type": "uint256"
        }
      ],
      "stateMutability": "nonpayable",
      "type": "function"
    },
    {
      "inputs": [
        {
          "internalType": "uint256",
          "name": "_id",
          "type": "uint256"
        },
        {
          "internalType": "uint256",
          "name": "_price",
          "type": "uint256"
        }
      ],
      "name": "listNFTforsale",
      "outputs": [],
      "stateMutability": "payable",
      "type": "function",
      "payable": true
    },
    {
      "inputs": [
        {
          "internalType": "uint256",
          "name": "_id",
          "type": "uint256"
        }
      ],
      "name": "unlistNFT",
      "outputs": [],
      "stateMutability": "nonpayable",
      "type": "function"
    },
    {
      "inputs": [
        {
          "internalType": "uint256",
          "name": "_id",
          "type": "uint256"
        },
        {
          "internalType": "uint256",
          "name": "_newPrice",
          "type": "uint256"
        }
      ],
      "name": "updatePrice",
      "outputs": [],
      "stateMutability": "nonpayable",
      "type": "function"
    },
    {
      "inputs": [
        {
          "internalType": "uint256",
          "name": "_id",
          "type": "uint256"
        }
      ],
      "name": "buyNFT",
      "outputs": [],
      "stateMutability": "payable",
      "type": "function",
      "payable": true
    },
    {
      "inputs": [],
      "name": "myNFTs",
      "outputs": [
        {
          "internalType": "uint256[]",
          "name": "",
          "type": "uint256[]"
        }
      ],
      "stateMutability": "view",
      "type": "function",
      "constant": true
    },
    {
      "inputs": [
        {
          "internalType": "uint256",
          "name": "_id",
          "type": "uint256"
        }
      ],
      "name": "getURI",
      "outputs": [
        {
          "internalType": "string",
          "name": "",
          "type": "string"
        }
      ],
      "stateMutability": "view",
      "type": "function",
      "constant": true
    },
    {
      "inputs": [],
      "name": "getBalance",
      "outputs": [
        {
          "internalType": "uint256",
          "name": "",
          "type": "uint256"
        }
      ],
      "stateMutability": "view",
      "type": "function",
      "constant": true
    },
    {
      "inputs": [],
      "name": "withdrawFees",
      "outputs": [],
      "stateMutability": "nonpayable",
      "type": "function"
    },
    {
      "inputs": [],
      "name": "getListedNFTs",
      "outputs": [
        {
          "components": [
            {
              "internalType": "uint256",
              "name": "id",
              "type": "uint256"
            },
            {
              "internalType": "address",
              "name": "owner",
              "type": "address"
            },
            {
              "internalType": "address",
              "name": "seller",
              "type": "address"
            },
            {
              "internalType": "uint256",
              "name": "price",
              "type": "uint256"
            },
            {
              "internalType": "string",
              "name": "uri",
              "type": "string"
            },
            {
              "internalType": "bool",
              "name": "listed",
              "type": "bool"
            }
          ],
          "internalType": "struct NFTMarketPlace.NFT[]",
          "name": "",
          "type": "tuple[]"
        }
      ],
      "stateMutability": "view",
      "type": "function",
      "constant": true
    },
    {
      "inputs": [
        {
          "internalType": "uint256",
          "name": "_id",
          "type": "uint256"
        }
      ],
      "name": "deleteNFT",
      "outputs": [],
      "stateMutability": "nonpayable",
      "type": "function"
    }
  ],
  "bytecode": "0x6080604052662386f26fc1000060025534801561001b57600080fd5b50336000806101000a81548173ffffffffffffffffffffffffffffffffffffffff021916908373ffffffffffffffffffffffffffffffffffffffff160217905550612f588061006b6000396000f3fe6080604052600436106100f35760003560e01c80636eb588d91161008a578063c14b18c811610059578063c14b18c814610310578063d85d3d271461032c578063e047829814610369578063f687ed5714610394576100f3565b80636eb588d91461026857806382367b2d146102935780638da5cb5b146102bc578063961f0944146102e7576100f3565b80631aa347dc116100c65780631aa347dc146101b6578063265aa621146101f3578063476343ee1461023557806351ed82881461024c576100f3565b8063012386f0146100f857806312065fe01461012357806318160ddd1461014e5780631a72b87d14610179575b600080fd5b34801561010457600080fd5b5061010d6103bd565b60405161011a9190611df2565b60405180910390f35b34801561012f57600080fd5b50610138610683565b6040516101459190611e23565b60405180910390f35b34801561015a57600080fd5b5061016361068b565b6040516101709190611e23565b60405180910390f35b34801561018557600080fd5b506101a0600480360381019061019b9190611ea0565b610691565b6040516101ad9190611e23565b60405180910390f35b3480156101c257600080fd5b506101dd60048036038101906101d89190611ee0565b6106c2565b6040516101ea9190611f57565b60405180910390f35b3480156101ff57600080fd5b5061021a60048036038101906102159190611ee0565b61076a565b60405161022c96959493929190611f97565b60405180910390f35b34801561024157600080fd5b5061024a61087b565b005b61026660048036038101906102619190611ee0565b6109f2565b005b34801561027457600080fd5b5061027d610e64565b60405161028a9190611e23565b60405180910390f35b34801561029f57600080fd5b506102ba60048036038101906102b59190611fff565b610e6a565b005b3480156102c857600080fd5b506102d1611000565b6040516102de919061203f565b60405180910390f35b3480156102f357600080fd5b5061030e60048036038101906103099190611ee0565b611024565b005b61032a60048036038101906103259190611fff565b6111cc565b005b34801561033857600080fd5b50610353600480360381019061034e91906120bf565b611436565b6040516103609190611e23565b60405180910390f35b34801561037557600080fd5b5061037e61173a565b60405161038b91906121bb565b60405180910390f35b3480156103a057600080fd5b506103bb60048036038101906103b69190611ee0565b6117cf565b005b6060600080600190505b600154811161041b576004600082815260200190815260200160002060050160009054906101000a900460ff16156104085781806104049061220c565b9250505b80806104139061220c565b9150506103c7565b5060008167ffffffffffffffff81111561043857610437612254565b5b60405190808252806020026020018201604052801561047157816020015b61045e611ae1565b8152602001906001900390816104565790505b509050600080600190505b6001548111610679576004600082815260200190815260200160002060050160009054906101000a900460ff161561066657600460008281526020019081526020016000206040518060c0016040529081600082015481526020016001820160009054906101000a900473ffffffffffffffffffffffffffffffffffffffff1673ffffffffffffffffffffffffffffffffffffffff1673ffffffffffffffffffffffffffffffffffffffff1681526020016002820160009054906101000a900473ffffffffffffffffffffffffffffffffffffffff1673ffffffffffffffffffffffffffffffffffffffff1673ffffffffffffffffffffffffffffffffffffffff1681526020016003820154815260200160048201805461059c906122b2565b80601f01602080910402602001604051908101604052809291908181526020018280546105c8906122b2565b80156106155780601f106105ea57610100808354040283529160200191610615565b820191906000526020600020905b8154815290600101906020018083116105f857829003601f168201915b505050505081526020016005820160009054906101000a900460ff16151515158152505083838151811061064c5761064b6122e3565b5b602002602001018190525081806106629061220c565b9250505b80806106719061220c565b91505061047c565b5081935050505090565b600047905090565b60015481565b600560205281600052604060002081815481106106ad57600080fd5b90600052602060002001600091509150505481565b60606004600083815260200190815260200160002060040180546106e5906122b2565b80601f0160208091040260200160405190810160405280929190818152602001828054610711906122b2565b801561075e5780601f106107335761010080835404028352916020019161075e565b820191906000526020600020905b81548152906001019060200180831161074157829003601f168201915b50505050509050919050565b60046020528060005260406000206000915090508060000154908060010160009054906101000a900473ffffffffffffffffffffffffffffffffffffffff16908060020160009054906101000a900473ffffffffffffffffffffffffffffffffffffffff16908060030154908060040180546107e5906122b2565b80601f0160208091040260200160405190810160405280929190818152602001828054610811906122b2565b801561085e5780601f106108335761010080835404028352916020019161085e565b820191906000526020600020905b81548152906001019060200180831161084157829003601f168201915b5050505050908060050160009054906101000a900460ff16905086565b60008054906101000a900473ffffffffffffffffffffffffffffffffffffffff1673ffffffffffffffffffffffffffffffffffffffff163373ffffffffffffffffffffffffffffffffffffffff1614610909576040517f08c379a00000000000000000000000000000000000000000000000000000000081526004016109009061235e565b60405180910390fd5b600047905060008111610951576040517f08c379a0000000000000000000000000000000000000000000000000000000008152600401610948906123ca565b60405180910390fd5b60008054906101000a900473ffffffffffffffffffffffffffffffffffffffff1673ffffffffffffffffffffffffffffffffffffffff166108fc829081150290604051600060405180830381858888f193505050501580156109b7573d6000803e3d6000fd5b507f9800e6f57aeb4360eaa72295a820a4293e1e66fbfcabcd8874ae141304a76deb816040516109e79190611e23565b60405180910390a150565b60006004600083815260200190815260200160002090508060050160009054906101000a900460ff16610a5a576040517f08c379a0000000000000000000000000000000000000000000000000000000008152600401610a5190612436565b60405180910390fd5b80600301543414610aa0576040517f08c379a0000000000000000000000000000000000000000000000000000000008152600401610a97906124a2565b60405180910390fd5b8060020160009054906101000a900473ffffffffffffffffffffffffffffffffffffffff1673ffffffffffffffffffffffffffffffffffffffff163373ffffffffffffffffffffffffffffffffffffffff1603610b32576040517f08c379a0000000000000000000000000000000000000000000000000000000008152600401610b299061250e565b60405180910390fd5b60008160020160009054906101000a900473ffffffffffffffffffffffffffffffffffffffff169050338260010160006101000a81548173ffffffffffffffffffffffffffffffffffffffff021916908373ffffffffffffffffffffffffffffffffffffffff16021790555060008260020160006101000a81548173ffffffffffffffffffffffffffffffffffffffff021916908373ffffffffffffffffffffffffffffffffffffffff1602179055506000826003018190555060008260050160006101000a81548160ff021916908315150217905550600560003373ffffffffffffffffffffffffffffffffffffffff1673ffffffffffffffffffffffffffffffffffffffff1681526020019081526020016000208390806001815401808255809150506001900390600052602060002001600090919091909150558073ffffffffffffffffffffffffffffffffffffffff166108fc349081150290604051600060405180830381858888f19350505050158015610cb5573d6000803e3d6000fd5b5060008054906101000a900473ffffffffffffffffffffffffffffffffffffffff1673ffffffffffffffffffffffffffffffffffffffff166108fc6002549081150290604051600060405180830381858888f19350505050158015610d1e573d6000803e3d6000fd5b506000600560008373ffffffffffffffffffffffffffffffffffffffff1673ffffffffffffffffffffffffffffffffffffffff168152602001908152602001600020905060005b8180549050811015610e235784828281548110610d8557610d846122e3565b5b906000526020600020015403610e10578160018380549050610da7919061252e565b81548110610db857610db76122e3565b5b9060005260206000200154828281548110610dd657610dd56122e3565b5b906000526020600020018190555081805480610df557610df4612562565b5b60019003818190600052602060002001600090559055610e23565b8080610e1b9061220c565b915050610d65565b50837ffd51b2c9f55c42d2b72ac683526519563be02fc0107f034ff430c05185ff1b663334604051610e56929190612591565b60405180910390a250505050565b60025481565b60006004600084815260200190815260200160002090503373ffffffffffffffffffffffffffffffffffffffff168160010160009054906101000a900473ffffffffffffffffffffffffffffffffffffffff1673ffffffffffffffffffffffffffffffffffffffff1614610f13576040517f08c379a0000000000000000000000000000000000000000000000000000000008152600401610f0a90612606565b60405180910390fd5b600115158160050160009054906101000a900460ff16151514610f6b576040517f08c379a0000000000000000000000000000000000000000000000000000000008152600401610f6290612672565b60405180910390fd5b60008211610fae576040517f08c379a0000000000000000000000000000000000000000000000000000000008152600401610fa5906126de565b60405180910390fd5b600081600301549050828260030181905550837f15819dd2fd9f6418b142e798d08a18d0bf06ea368f4480b7b0d3f75bd966bc488285604051610ff29291906126fe565b60405180910390a250505050565b60008054906101000a900473ffffffffffffffffffffffffffffffffffffffff1681565b60006004600083815260200190815260200160002090503373ffffffffffffffffffffffffffffffffffffffff168160010160009054906101000a900473ffffffffffffffffffffffffffffffffffffffff1673ffffffffffffffffffffffffffffffffffffffff16146110cd576040517f08c379a00000000000000000000000000000000000000000000000000000000081526004016110c490612773565b60405180910390fd5b600115158160050160009054906101000a900460ff16151514611125576040517f08c379a000000000000000000000000000000000000000000000000000000000815260040161111c906127df565b60405180910390fd5b60008160050160006101000a81548160ff0219169083151502179055506000816003018190555060008160020160006101000a81548173ffffffffffffffffffffffffffffffffffffffff021916908373ffffffffffffffffffffffffffffffffffffffff160217905550817f398bd90ce129393b9155d48dccffb325e671f45c4250de457462a019268ff1f0336040516111c0919061203f565b60405180910390a25050565b3373ffffffffffffffffffffffffffffffffffffffff166004600084815260200190815260200160002060010160009054906101000a900473ffffffffffffffffffffffffffffffffffffffff1673ffffffffffffffffffffffffffffffffffffffff1614611270576040517f08c379a000000000000000000000000000000000000000000000000000000000815260040161126790612871565b60405180910390fd5b600081116112b3576040517f08c379a00000000000000000000000000000000000000000000000000000000081526004016112aa906126de565b60405180910390fd5b60025434146112f7576040517f08c379a00000000000000000000000000000000000000000000000000000000081526004016112ee906128dd565b60405180910390fd5b6004600083815260200190815260200160002060050160009054906101000a900460ff161561135b576040517f08c379a000000000000000000000000000000000000000000000000000000000815260040161135290612949565b60405180910390fd5b60016004600084815260200190815260200160002060050160006101000a81548160ff021916908315150217905550806004600084815260200190815260200160002060030181905550336004600084815260200190815260200160002060020160006101000a81548173ffffffffffffffffffffffffffffffffffffffff021916908373ffffffffffffffffffffffffffffffffffffffff160217905550817f1ea45e30b31292f9d7c5d37d275b2feca555f13f47dce0fdea2f47e8852ecd788260405161142a9190611e23565b60405180910390a25050565b60006003838360405161144a9291906129a8565b908152602001604051809103902060009054906101000a900460ff16156114a6576040517f08c379a000000000000000000000000000000000000000000000000000000000815260040161149d90612a0d565b60405180910390fd5b600160008154809291906114b99061220c565b9190505550600060015490506040518060c001604052808281526020013373ffffffffffffffffffffffffffffffffffffffff168152602001600073ffffffffffffffffffffffffffffffffffffffff1681526020016000815260200185858080601f016020809104026020016040519081016040528093929190818152602001838380828437600081840152601f19601f82011690508083019250505050505050815260200160001515815250600460008381526020019081526020016000206000820151816000015560208201518160010160006101000a81548173ffffffffffffffffffffffffffffffffffffffff021916908373ffffffffffffffffffffffffffffffffffffffff16021790555060408201518160020160006101000a81548173ffffffffffffffffffffffffffffffffffffffff021916908373ffffffffffffffffffffffffffffffffffffffff1602179055506060820151816003015560808201518160040190816116319190612bd9565b5060a08201518160050160006101000a81548160ff021916908315150217905550905050600560003373ffffffffffffffffffffffffffffffffffffffff1673ffffffffffffffffffffffffffffffffffffffff1681526020019081526020016000208190806001815401808255809150506001900390600052602060002001600090919091909150556001600385856040516116cf9291906129a8565b908152602001604051809103902060006101000a81548160ff021916908315150217905550807f3b8a974a6971dbe70c8718ec80406b2790d2aa5477b6a5bed3d94fa19e06d60d33868660405161172893929190612cd8565b60405180910390a28091505092915050565b6060600560003373ffffffffffffffffffffffffffffffffffffffff1673ffffffffffffffffffffffffffffffffffffffff1681526020019081526020016000208054806020026020016040519081016040528092919081815260200182805480156117c557602002820191906000526020600020905b8154815260200190600101908083116117b1575b5050505050905090565b60006004600083815260200190815260200160002090503373ffffffffffffffffffffffffffffffffffffffff168160010160009054906101000a900473ffffffffffffffffffffffffffffffffffffffff1673ffffffffffffffffffffffffffffffffffffffff1614611878576040517f08c379a000000000000000000000000000000000000000000000000000000000815260040161186f90612d56565b60405180910390fd5b8060050160009054906101000a900460ff16156118ca576040517f08c379a00000000000000000000000000000000000000000000000000000000081526004016118c190612dc2565b60405180910390fd5b60006003826004016040516118df9190612e65565b908152602001604051809103902060006101000a81548160ff021916908315150217905550600460008381526020019081526020016000206000808201600090556001820160006101000a81549073ffffffffffffffffffffffffffffffffffffffff02191690556002820160006101000a81549073ffffffffffffffffffffffffffffffffffffffff021916905560038201600090556004820160006119869190611b45565b6005820160006101000a81549060ff021916905550506000600560003373ffffffffffffffffffffffffffffffffffffffff1673ffffffffffffffffffffffffffffffffffffffff168152602001908152602001600020905060005b8180549050811015611aa05783828281548110611a0257611a016122e3565b5b906000526020600020015403611a8d578160018380549050611a24919061252e565b81548110611a3557611a346122e3565b5b9060005260206000200154828281548110611a5357611a526122e3565b5b906000526020600020018190555081805480611a7257611a71612562565b5b60019003818190600052602060002001600090559055611aa0565b8080611a989061220c565b9150506119e2565b50827f9033e030b285e24d878a56c0809910a4fbc2c14bc876c3060bfdefc4f21ea68c83600401604051611ad49190612f00565b60405180910390a2505050565b6040518060c0016040528060008152602001600073ffffffffffffffffffffffffffffffffffffffff168152602001600073ffffffffffffffffffffffffffffffffffffffff16815260200160008152602001606081526020016000151581525090565b508054611b51906122b2565b6000825580601f10611b635750611b82565b601f016020900490600052602060002090810190611b819190611b85565b5b50565b5b80821115611b9e576000816000905550600101611b86565b5090565b600081519050919050565b600082825260208201905092915050565b6000819050602082019050919050565b6000819050919050565b611be181611bce565b82525050565b600073ffffffffffffffffffffffffffffffffffffffff82169050919050565b6000611c1282611be7565b9050919050565b611c2281611c07565b82525050565b600081519050919050565b600082825260208201905092915050565b60005b83811015611c62578082015181840152602081019050611c47565b60008484015250505050565b6000601f19601f8301169050919050565b6000611c8a82611c28565b611c948185611c33565b9350611ca4818560208601611c44565b611cad81611c6e565b840191505092915050565b60008115159050919050565b611ccd81611cb8565b82525050565b600060c083016000830151611ceb6000860182611bd8565b506020830151611cfe6020860182611c19565b506040830151611d116040860182611c19565b506060830151611d246060860182611bd8565b5060808301518482036080860152611d3c8282611c7f565b91505060a0830151611d5160a0860182611cc4565b508091505092915050565b6000611d688383611cd3565b905092915050565b6000602082019050919050565b6000611d8882611ba2565b611d928185611bad565b935083602082028501611da485611bbe565b8060005b85811015611de05784840389528151611dc18582611d5c565b9450611dcc83611d70565b925060208a01995050600181019050611da8565b50829750879550505050505092915050565b60006020820190508181036000830152611e0c8184611d7d565b905092915050565b611e1d81611bce565b82525050565b6000602082019050611e386000830184611e14565b92915050565b600080fd5b600080fd5b611e5181611c07565b8114611e5c57600080fd5b50565b600081359050611e6e81611e48565b92915050565b611e7d81611bce565b8114611e8857600080fd5b50565b600081359050611e9a81611e74565b92915050565b60008060408385031215611eb757611eb6611e3e565b5b6000611ec585828601611e5f565b9250506020611ed685828601611e8b565b9150509250929050565b600060208284031215611ef657611ef5611e3e565b5b6000611f0484828501611e8b565b91505092915050565b600082825260208201905092915050565b6000611f2982611c28565b611f338185611f0d565b9350611f43818560208601611c44565b611f4c81611c6e565b840191505092915050565b60006020820190508181036000830152611f718184611f1e565b905092915050565b611f8281611c07565b82525050565b611f9181611cb8565b82525050565b600060c082019050611fac6000830189611e14565b611fb96020830188611f79565b611fc66040830187611f79565b611fd36060830186611e14565b8181036080830152611fe58185611f1e565b9050611ff460a0830184611f88565b979650505050505050565b6000806040838503121561201657612015611e3e565b5b600061202485828601611e8b565b925050602061203585828601611e8b565b9150509250929050565b60006020820190506120546000830184611f79565b92915050565b600080fd5b600080fd5b600080fd5b60008083601f84011261207f5761207e61205a565b5b8235905067ffffffffffffffff81111561209c5761209b61205f565b5b6020830191508360018202830111156120b8576120b7612064565b5b9250929050565b600080602083850312156120d6576120d5611e3e565b5b600083013567ffffffffffffffff8111156120f4576120f3611e43565b5b61210085828601612069565b92509250509250929050565b600081519050919050565b600082825260208201905092915050565b6000819050602082019050919050565b60006121448383611bd8565b60208301905092915050565b6000602082019050919050565b60006121688261210c565b6121728185612117565b935061217d83612128565b8060005b838110156121ae5781516121958882612138565b97506121a083612150565b925050600181019050612181565b5085935050505092915050565b600060208201905081810360008301526121d5818461215d565b905092915050565b7f4e487b7100000000000000000000000000000000000000000000000000000000600052601160045260246000fd5b600061221782611bce565b91507fffffffffffffffffffffffffffffffffffffffffffffffffffffffffffffffff8203612249576122486121dd565b5b600182019050919050565b7f4e487b7100000000000000000000000000000000000000000000000000000000600052604160045260246000fd5b7f4e487b7100000000000000000000000000000000000000000000000000000000600052602260045260246000fd5b600060028204905060018216806122ca57607f821691505b6020821081036122dd576122dc612283565b5b50919050565b7f4e487b7100000000000000000000000000000000000000000000000000000000600052603260045260246000fd5b7f4f6e6c79206f776e65722063616e207769746864726177000000000000000000600082015250565b6000612348601783611f0d565b915061235382612312565b602082019050919050565b600060208201905081810360008301526123778161233b565b9050919050565b7f4e6f2062616c616e636520746f20776974686472617700000000000000000000600082015250565b60006123b4601683611f0d565b91506123bf8261237e565b602082019050919050565b600060208201905081810360008301526123e3816123a7565b9050919050565b7f4e4654206e6f74206c6973746564000000000000000000000000000000000000600082015250565b6000612420600e83611f0d565b915061242b826123ea565b602082019050919050565b6000602082019050818103600083015261244f81612413565b9050919050565b7f496e636f72726563742070726963650000000000000000000000000000000000600082015250565b600061248c600f83611f0d565b915061249782612456565b602082019050919050565b600060208201905081810360008301526124bb8161247f565b9050919050565b7f43616e6e6f742062757920796f7572206f776e204e4654000000000000000000600082015250565b60006124f8601783611f0d565b9150612503826124c2565b602082019050919050565b60006020820190508181036000830152612527816124eb565b9050919050565b600061253982611bce565b915061254483611bce565b925082820390508181111561255c5761255b6121dd565b5b92915050565b7f4e487b7100000000000000000000000000000000000000000000000000000000600052603160045260246000fd5b60006040820190506125a66000830185611f79565b6125b36020830184611e14565b9392505050565b7f4f6e6c7920746865206f776e65722063616e2075706461746520707269636500600082015250565b60006125f0601f83611f0d565b91506125fb826125ba565b602082019050919050565b6000602082019050818103600083015261261f816125e3565b9050919050565b7f4e4654206d757374206265206c69737465640000000000000000000000000000600082015250565b600061265c601283611f0d565b915061266782612626565b602082019050919050565b6000602082019050818103600083015261268b8161264f565b9050919050565b7f5072696365206d7573742062652067726561746572207468616e203000000000600082015250565b60006126c8601c83611f0d565b91506126d382612692565b602082019050919050565b600060208201905081810360008301526126f7816126bb565b9050919050565b60006040820190506127136000830185611e14565b6127206020830184611e14565b9392505050565b7f4f6e6c7920746865206f776e65722063616e20756e6c69737400000000000000600082015250565b600061275d601983611f0d565b915061276882612727565b602082019050919050565b6000602082019050818103600083015261278c81612750565b9050919050565b7f4e4654206973206e6f74206c6973746564000000000000000000000000000000600082015250565b60006127c9601183611f0d565b91506127d482612793565b602082019050919050565b600060208201905081810360008301526127f8816127bc565b9050919050565b7f596f7520617265206e6f7420746865206f776e6572206f662074686973204e4660008201527f5400000000000000000000000000000000000000000000000000000000000000602082015250565b600061285b602183611f0d565b9150612866826127ff565b604082019050919050565b6000602082019050818103600083015261288a8161284e565b9050919050565b7f4c697374696e6720666565206973207265717569726564000000000000000000600082015250565b60006128c7601783611f0d565b91506128d282612891565b602082019050919050565b600060208201905081810360008301526128f6816128ba565b9050919050565b7f4e465420697320616c7265616479206c69737465640000000000000000000000600082015250565b6000612933601583611f0d565b915061293e826128fd565b602082019050919050565b6000602082019050818103600083015261296281612926565b9050919050565b600081905092915050565b82818337600083830152505050565b600061298f8385612969565b935061299c838584612974565b82840190509392505050565b60006129b5828486612983565b91508190509392505050565b7f4e4654207769746820746869732055524920616c726561647920657869737473600082015250565b60006129f7602083611f0d565b9150612a02826129c1565b602082019050919050565b60006020820190508181036000830152612a26816129ea565b9050919050565b60008190508160005260206000209050919050565b60006020601f8301049050919050565b600082821b905092915050565b600060088302612a8f7fffffffffffffffffffffffffffffffffffffffffffffffffffffffffffffffff82612a52565b612a998683612a52565b95508019841693508086168417925050509392505050565b6000819050919050565b6000612ad6612ad1612acc84611bce565b612ab1565b611bce565b9050919050565b6000819050919050565b612af083612abb565b612b04612afc82612add565b848454612a5f565b825550505050565b600090565b612b19612b0c565b612b24818484612ae7565b505050565b5b81811015612b4857612b3d600082612b11565b600181019050612b2a565b5050565b601f821115612b8d57612b5e81612a2d565b612b6784612a42565b81016020851015612b76578190505b612b8a612b8285612a42565b830182612b29565b50505b505050565b600082821c905092915050565b6000612bb060001984600802612b92565b1980831691505092915050565b6000612bc98383612b9f565b9150826002028217905092915050565b612be282611c28565b67ffffffffffffffff811115612bfb57612bfa612254565b5b612c0582546122b2565b612c10828285612b4c565b600060209050601f831160018114612c435760008415612c31578287015190505b612c3b8582612bbd565b865550612ca3565b601f198416612c5186612a2d565b60005b82811015612c7957848901518255600182019150602085019450602081019050612c54565b86831015612c965784890151612c92601f891682612b9f565b8355505b6001600288020188555050505b505050505050565b6000612cb78385611f0d565b9350612cc4838584612974565b612ccd83611c6e565b840190509392505050565b6000604082019050612ced6000830186611f79565b8181036020830152612d00818486612cab565b9050949350505050565b7f4e6f7420796f7572204e46540000000000000000000000000000000000000000600082015250565b6000612d40600c83611f0d565b9150612d4b82612d0a565b602082019050919050565b60006020820190508181036000830152612d6f81612d33565b9050919050565b7f556e6c697374206265666f72652064656c6574696f6e00000000000000000000600082015250565b6000612dac601683611f0d565b9150612db782612d76565b602082019050919050565b60006020820190508181036000830152612ddb81612d9f565b9050919050565b60008154612def816122b2565b612df98186612969565b94506001821660008114612e145760018114612e2957612e5c565b60ff1983168652811515820286019350612e5c565b612e3285612a2d565b60005b83811015612e5457815481890152600182019150602081019050612e35565b838801955050505b50505092915050565b6000612e718284612de2565b915081905092915050565b60008154612e89816122b2565b612e938186611f0d565b94506001821660008114612eae5760018114612ec457612ef7565b60ff198316865281151560200286019350612ef7565b612ecd85612a2d565b60005b83811015612eef57815481890152600182019150602081019050612ed0565b808801955050505b50505092915050565b60006020820190508181036000830152612f1a8184612e7c565b90509291505056fea26469706673582212200d67c051ac5147d6d4f9112689eef7ca216e98f152fe048edd8c8dc61f83299464736f6c63430008130033",
  "immutableReferences": {},
  "source": "// SPDX-License-Identifier: MIT\npragma solidity ^0.8.19;\n\ncontract NFTMarketPlace {\n    address public owner;\n    uint256 public totalSupply;\n    uint256 public listPrice = 0.01 ether;\n    mapping(string => bool) private usedURIs;\n\n\n    struct NFT {\n        uint256 id;\n        address owner;\n        address seller;\n        uint256 price;\n        string uri;\n        bool listed;\n    }\n\n    mapping(uint256 => NFT) public nfts;\n    mapping(address => uint256[]) public ownedNFTs;\n\n    event Minted(uint256 indexed id, address owner, string uri);\n    event Listed(uint256 indexed id, uint256 price);\n    event Unlisted(uint256 indexed id, address seller);\n    event Purchased(uint256 indexed id, address newOwner, uint256 price);\n    event PriceUpdated(uint256 indexed id, uint256 oldPrice, uint256 newPrice);\n    event Deleted(uint256 indexed id, string uri);\n    event FeesWithdrawn(uint256 amount);\n\n    constructor() {\n        owner = msg.sender;\n    }\n\n    function mint(string calldata _uri) external returns (uint256) {\n        require(!usedURIs[_uri], \"NFT with this URI already exists\");\n\n        totalSupply++;\n        uint256 newId = totalSupply;\n\n        nfts[newId] = NFT({\n            id: newId,\n            owner: msg.sender,\n            seller: address(0),\n            price: 0,\n            uri: _uri,\n            listed: false\n        });\n\n        ownedNFTs[msg.sender].push(newId);\n        usedURIs[_uri] = true;\n\n        emit Minted(newId, msg.sender, _uri);\n        return newId;\n    }\n\n    function listNFTforsale(uint256 _id, uint256 _price) external payable {\n        require(nfts[_id].owner == msg.sender, \"You are not the owner of this NFT\");\n        require(_price > 0, \"Price must be greater than 0\");\n        require(msg.value == listPrice, \"Listing fee is required\");\n        require(!nfts[_id].listed, \"NFT is already listed\");\n\n        nfts[_id].listed = true;\n        nfts[_id].price = _price;\n        nfts[_id].seller = msg.sender;\n\n        emit Listed(_id, _price);\n    }\n\n    function unlistNFT(uint256 _id) external {\n        NFT storage item = nfts[_id];\n        require(item.owner == msg.sender, \"Only the owner can unlist\");\n        require(item.listed == true, \"NFT is not listed\");\n\n        item.listed = false;\n        item.price = 0;\n        item.seller = address(0);\n\n        emit Unlisted(_id, msg.sender);\n    }\n\n    function updatePrice(uint256 _id, uint256 _newPrice) external {\n        NFT storage item = nfts[_id];\n        require(item.owner == msg.sender, \"Only the owner can update price\");\n        require(item.listed == true, \"NFT must be listed\");\n        require(_newPrice > 0, \"Price must be greater than 0\");\n\n        uint256 oldPrice = item.price;\n        item.price = _newPrice;\n\n        emit PriceUpdated(_id, oldPrice, _newPrice);\n    }\n\n    function buyNFT(uint256 _id) external payable {\n        NFT storage item = nfts[_id];\n        require(item.listed, \"NFT not listed\");\n        require(msg.value == item.price, \"Incorrect price\");\n        require(msg.sender != item.seller, \"Cannot buy your own NFT\");\n\n        address seller = item.seller;\n\n        item.owner = msg.sender;\n        item.seller = address(0);\n        item.price = 0;\n        item.listed = false;\n\n        ownedNFTs[msg.sender].push(_id);\n\n        payable(seller).transfer(msg.value);\n        payable(owner).transfer(listPrice);\n\n        uint256[] storage prevOwnerNFTs = ownedNFTs[seller];\n        for (uint256 i = 0; i < prevOwnerNFTs.length; i++) {\n            if (prevOwnerNFTs[i] == _id) {\n                prevOwnerNFTs[i] = prevOwnerNFTs[prevOwnerNFTs.length - 1];\n                prevOwnerNFTs.pop();\n                break;\n            }\n        }\n        emit Purchased(_id, msg.sender, msg.value);\n    }\n\n    function myNFTs() external view returns (uint256[] memory) {\n        return ownedNFTs[msg.sender];\n    }\n\n    function getURI(uint256 _id) external view returns (string memory) {\n        return nfts[_id].uri;\n    }\n\n    function getBalance() external view returns (uint256) {\n        return address(this).balance;\n    }\n\n    function withdrawFees() external {\n        require(msg.sender == owner, \"Only owner can withdraw\");\n        uint256 amount = address(this).balance;\n        require(amount > 0, \"No balance to withdraw\");\n        payable(owner).transfer(amount);\n\n        emit FeesWithdrawn(amount);\n    }\n\n    function getListedNFTs() external view returns (NFT[] memory) {\n    uint256 listedCount = 0;\n    \n    // Count how many NFTs are listed\n    for (uint256 i = 1; i <= totalSupply; i++) {\n        if (nfts[i].listed) {\n            listedCount++;\n        }\n    }\n    \n    // Create an array to store listed NFTs\n    NFT[] memory listedNFTs = new NFT[](listedCount);\n    uint256 index = 0;\n    \n    // Populate the array with listed NFTs\n    for (uint256 i = 1; i <= totalSupply; i++) {\n        if (nfts[i].listed) {\n            listedNFTs[index] = nfts[i];\n            index++;\n        }\n    }\n    \n    return listedNFTs;\n}\n\n\n    function deleteNFT(uint256 _id) external {\n        NFT storage item = nfts[_id];\n        require(item.owner == msg.sender, \"Not your NFT\");\n        require(!item.listed, \"Unlist before deletion\");\n\n        // Remove URI tracking\n        usedURIs[item.uri] = false;\n\n        // Remove NFT data\n        delete nfts[_id];\n\n        // Remove from owned NFTs mapping\n        uint256[] storage userNFTs = ownedNFTs[msg.sender];\n        for (uint256 i = 0; i < userNFTs.length; i++) {\n            if (userNFTs[i] == _id) {\n                userNFTs[i] = userNFTs[userNFTs.length - 1];\n                userNFTs.pop();\n                break;\n            }\n        }\n\n        emit Deleted(_id, item.uri);\n    }\n}\n",
  "sourcePath": "/Users/ananya/Projects/BC_final/backend/contracts/NFTMarketPlace.sol",
  "compiler": {
    "name": "solc",
    "version": "0.8.19+commit.7dd6d404.Emscripten.clang"
  },
  "schemaVersion": "3.4.16",
  "updatedAt": "2025-04-16T07:24:04.254Z",
  "networkType": "ethereum",
  "devdoc": {
    "kind": "dev",
    "methods": {},
    "version": 1
  },
  "userdoc": {
    "kind": "user",
    "methods": {},
    "version": 1
  }
}